{
  "_format": "hh-sol-artifact-1",
  "contractName": "MyContract",
  "sourceName": "contracts/MyContract.sol",
  "abi": [
    {
      "inputs": [
        {
          "internalType": "address",
          "name": "_token",
          "type": "address"
        }
      ],
      "stateMutability": "nonpayable",
      "type": "constructor"
    },
    {
      "anonymous": false,
      "inputs": [
        {
          "indexed": true,
          "internalType": "address",
          "name": "previousOwner",
          "type": "address"
        },
        {
          "indexed": true,
          "internalType": "address",
          "name": "newOwner",
          "type": "address"
        }
      ],
      "name": "OwnershipTransferred",
      "type": "event"
    },
    {
      "inputs": [
        {
          "internalType": "uint256",
          "name": "_tokenAmount",
          "type": "uint256"
        }
      ],
      "name": "addLiquidity",
      "outputs": [],
      "stateMutability": "payable",
      "type": "function"
    },
    {
      "inputs": [],
      "name": "getReserve",
      "outputs": [
        {
          "internalType": "uint256",
          "name": "",
          "type": "uint256"
        }
      ],
      "stateMutability": "view",
      "type": "function"
    },
    {
      "inputs": [],
      "name": "owner",
      "outputs": [
        {
          "internalType": "address",
          "name": "",
          "type": "address"
        }
      ],
      "stateMutability": "view",
      "type": "function"
    },
    {
      "inputs": [],
      "name": "renounceOwnership",
      "outputs": [],
      "stateMutability": "nonpayable",
      "type": "function"
    },
    {
      "inputs": [],
      "name": "tokenAddress",
      "outputs": [
        {
          "internalType": "address",
          "name": "",
          "type": "address"
        }
      ],
      "stateMutability": "view",
      "type": "function"
    },
    {
      "inputs": [
        {
          "internalType": "address",
          "name": "newOwner",
          "type": "address"
        }
      ],
      "name": "transferOwnership",
      "outputs": [],
      "stateMutability": "nonpayable",
      "type": "function"
    }
  ],
  "bytecode": "0x608060405234801561001057600080fd5b50604051610b78380380610b78833981810160405281019061003291906101e6565b61004e61004361010560201b60201c565b61010d60201b60201c565b600073ffffffffffffffffffffffffffffffffffffffff168173ffffffffffffffffffffffffffffffffffffffff1614156100be576040517f08c379a00000000000000000000000000000000000000000000000000000000081526004016100b590610232565b60405180910390fd5b80600160006101000a81548173ffffffffffffffffffffffffffffffffffffffff021916908373ffffffffffffffffffffffffffffffffffffffff160217905550506102d5565b600033905090565b60008060009054906101000a900473ffffffffffffffffffffffffffffffffffffffff169050816000806101000a81548173ffffffffffffffffffffffffffffffffffffffff021916908373ffffffffffffffffffffffffffffffffffffffff1602179055508173ffffffffffffffffffffffffffffffffffffffff168173ffffffffffffffffffffffffffffffffffffffff167f8be0079c531659141344cd1fd0a4f28419497f9722a3daafe3b4186f6b6457e060405160405180910390a35050565b6000815190506101e0816102be565b92915050565b6000602082840312156101f857600080fd5b6000610206848285016101d1565b91505092915050565b600061021c601583610252565b915061022782610295565b602082019050919050565b6000602082019050818103600083015261024b8161020f565b9050919050565b600082825260208201905092915050565b600061026e82610275565b9050919050565b600073ffffffffffffffffffffffffffffffffffffffff82169050919050565b7f696e76616c696420746f6b656e20616464726573730000000000000000000000600082015250565b6102c781610263565b81146102d257600080fd5b50565b610894806102e46000396000f3fe6080604052600436106100555760003560e01c806351c6590a1461005a57806359bf5d3914610076578063715018a6146100a15780638da5cb5b146100b85780639d76ea58146100e3578063f2fde38b1461010e575b600080fd5b610074600480360381019061006f91906105e5565b610137565b005b34801561008257600080fd5b5061008b6101f2565b604051610098919061072d565b60405180910390f35b3480156100ad57600080fd5b506100b66102a4565b005b3480156100c457600080fd5b506100cd61032c565b6040516100da919061069b565b60405180910390f35b3480156100ef57600080fd5b506100f8610355565b604051610105919061069b565b60405180910390f35b34801561011a57600080fd5b5061013560048036038101906101309190610593565b61037b565b005b6000600160009054906101000a900473ffffffffffffffffffffffffffffffffffffffff1690508073ffffffffffffffffffffffffffffffffffffffff166323b872dd3330856040518463ffffffff1660e01b815260040161019b939291906106b6565b602060405180830381600087803b1580156101b557600080fd5b505af11580156101c9573d6000803e3d6000fd5b505050506040513d601f19601f820116820180604052508101906101ed91906105bc565b505050565b6000600160009054906101000a900473ffffffffffffffffffffffffffffffffffffffff1673ffffffffffffffffffffffffffffffffffffffff166370a08231306040518263ffffffff1660e01b815260040161024f919061069b565b60206040518083038186803b15801561026757600080fd5b505afa15801561027b573d6000803e3d6000fd5b505050506040513d601f19601f8201168201806040525081019061029f919061060e565b905090565b6102ac610473565b73ffffffffffffffffffffffffffffffffffffffff166102ca61032c565b73ffffffffffffffffffffffffffffffffffffffff1614610320576040517f08c379a00000000000000000000000000000000000000000000000000000000081526004016103179061070d565b60405180910390fd5b61032a600061047b565b565b60008060009054906101000a900473ffffffffffffffffffffffffffffffffffffffff16905090565b600160009054906101000a900473ffffffffffffffffffffffffffffffffffffffff1681565b610383610473565b73ffffffffffffffffffffffffffffffffffffffff166103a161032c565b73ffffffffffffffffffffffffffffffffffffffff16146103f7576040517f08c379a00000000000000000000000000000000000000000000000000000000081526004016103ee9061070d565b60405180910390fd5b600073ffffffffffffffffffffffffffffffffffffffff168173ffffffffffffffffffffffffffffffffffffffff161415610467576040517f08c379a000000000000000000000000000000000000000000000000000000000815260040161045e906106ed565b60405180910390fd5b6104708161047b565b50565b600033905090565b60008060009054906101000a900473ffffffffffffffffffffffffffffffffffffffff169050816000806101000a81548173ffffffffffffffffffffffffffffffffffffffff021916908373ffffffffffffffffffffffffffffffffffffffff1602179055508173ffffffffffffffffffffffffffffffffffffffff168173ffffffffffffffffffffffffffffffffffffffff167f8be0079c531659141344cd1fd0a4f28419497f9722a3daafe3b4186f6b6457e060405160405180910390a35050565b60008135905061054e81610819565b92915050565b60008151905061056381610830565b92915050565b60008135905061057881610847565b92915050565b60008151905061058d81610847565b92915050565b6000602082840312156105a557600080fd5b60006105b38482850161053f565b91505092915050565b6000602082840312156105ce57600080fd5b60006105dc84828501610554565b91505092915050565b6000602082840312156105f757600080fd5b600061060584828501610569565b91505092915050565b60006020828403121561062057600080fd5b600061062e8482850161057e565b91505092915050565b61064081610759565b82525050565b6000610653602683610748565b915061065e826107a1565b604082019050919050565b6000610676602083610748565b9150610681826107f0565b602082019050919050565b61069581610797565b82525050565b60006020820190506106b06000830184610637565b92915050565b60006060820190506106cb6000830186610637565b6106d86020830185610637565b6106e5604083018461068c565b949350505050565b6000602082019050818103600083015261070681610646565b9050919050565b6000602082019050818103600083015261072681610669565b9050919050565b6000602082019050610742600083018461068c565b92915050565b600082825260208201905092915050565b600061076482610777565b9050919050565b60008115159050919050565b600073ffffffffffffffffffffffffffffffffffffffff82169050919050565b6000819050919050565b7f4f776e61626c653a206e6577206f776e657220697320746865207a65726f206160008201527f6464726573730000000000000000000000000000000000000000000000000000602082015250565b7f4f776e61626c653a2063616c6c6572206973206e6f7420746865206f776e6572600082015250565b61082281610759565b811461082d57600080fd5b50565b6108398161076b565b811461084457600080fd5b50565b61085081610797565b811461085b57600080fd5b5056fea2646970667358221220395d8e0e888e058879ea98aae351844cdde44db05411cfa52ea749e17854614064736f6c63430008040033",
  "linkReferences": {},
  "deployedLinkReferences": {}
}